{
  "contractName": "Identity",
  "abi": [
    {
      "constant": true,
      "inputs": [],
      "name": "Encoding",
      "outputs": [
        {
          "name": "",
          "type": "string"
        }
      ],
      "payable": false,
      "stateMutability": "view",
      "type": "function"
    },
    {
      "constant": true,
      "inputs": [],
      "name": "OwnerKey",
      "outputs": [
        {
          "name": "",
          "type": "address"
        }
      ],
      "payable": false,
      "stateMutability": "view",
      "type": "function"
    },
    {
      "constant": true,
      "inputs": [],
      "name": "CreationBlock",
      "outputs": [
        {
          "name": "",
          "type": "uint256"
        }
      ],
      "payable": false,
      "stateMutability": "view",
      "type": "function"
    },
    {
      "constant": true,
      "inputs": [],
      "name": "Metadata",
      "outputs": [
        {
          "name": "",
          "type": "bytes"
        }
      ],
      "payable": false,
      "stateMutability": "view",
      "type": "function"
    },
    {
      "constant": true,
      "inputs": [],
      "name": "VERSION",
      "outputs": [
        {
          "name": "",
          "type": "string"
        }
      ],
      "payable": false,
      "stateMutability": "view",
      "type": "function"
    },
    {
      "inputs": [
        {
          "name": "encoding",
          "type": "string"
        },
        {
          "name": "metadata",
          "type": "bytes"
        }
      ],
      "payable": false,
      "stateMutability": "nonpayable",
      "type": "constructor"
    },
    {
      "anonymous": false,
      "inputs": [
        {
          "indexed": true,
          "name": "ownerKey",
          "type": "address"
        },
        {
          "indexed": false,
          "name": "creationBlock",
          "type": "uint256"
        }
      ],
      "name": "ContractCreatedEvent",
      "type": "event"
    },
    {
      "anonymous": false,
      "inputs": [
        {
          "indexed": true,
          "name": "ownerKey",
          "type": "address"
        },
        {
          "indexed": true,
          "name": "signingKey",
          "type": "address"
        },
        {
          "indexed": false,
          "name": "attrID",
          "type": "string"
        },
        {
          "indexed": false,
          "name": "badgeID",
          "type": "string"
        },
        {
          "indexed": false,
          "name": "creationBlock",
          "type": "uint256"
        }
      ],
      "name": "BadgeStateResetEvent",
      "type": "event"
    },
    {
      "anonymous": false,
      "inputs": [
        {
          "indexed": true,
          "name": "ownerKey",
          "type": "address"
        },
        {
          "indexed": true,
          "name": "signingKey",
          "type": "address"
        },
        {
          "indexed": false,
          "name": "attrID",
          "type": "string"
        },
        {
          "indexed": false,
          "name": "badgeID",
          "type": "string"
        },
        {
          "indexed": false,
          "name": "creationBlock",
          "type": "uint256"
        }
      ],
      "name": "AttributeProofChangeEvent",
      "type": "event"
    },
    {
      "anonymous": false,
      "inputs": [
        {
          "indexed": true,
          "name": "ownerKey",
          "type": "address"
        },
        {
          "indexed": true,
          "name": "signingKey",
          "type": "address"
        },
        {
          "indexed": false,
          "name": "badgeID",
          "type": "string"
        },
        {
          "indexed": false,
          "name": "state",
          "type": "uint8"
        },
        {
          "indexed": false,
          "name": "creationBlock",
          "type": "uint256"
        }
      ],
      "name": "TrustRelationshipSignEvent",
      "type": "event"
    },
    {
      "anonymous": false,
      "inputs": [
        {
          "indexed": true,
          "name": "ownerKey",
          "type": "address"
        },
        {
          "indexed": true,
          "name": "signingKey",
          "type": "address"
        },
        {
          "indexed": false,
          "name": "badgeID",
          "type": "string"
        },
        {
          "indexed": false,
          "name": "creationBlock",
          "type": "uint256"
        }
      ],
      "name": "TrustRelationshipCreatedEvent",
      "type": "event"
    },
    {
      "constant": false,
      "inputs": [
        {
          "name": "badgeID",
          "type": "string"
        },
        {
          "name": "signingKey",
          "type": "address"
        },
        {
          "name": "attrIDs",
          "type": "string[]"
        },
        {
          "name": "encoding",
          "type": "string"
        },
        {
          "name": "metadata",
          "type": "bytes"
        }
      ],
      "name": "createTrustRelationship",
      "outputs": [],
      "payable": false,
      "stateMutability": "nonpayable",
      "type": "function"
    },
    {
      "constant": false,
      "inputs": [
        {
          "name": "badgeID",
          "type": "string"
        },
        {
          "name": "checkedData",
          "type": "string[4][]"
        },
        {
          "name": "checkedMetaData",
          "type": "bytes[]"
        }
      ],
      "name": "verifyTrustRelationship",
      "outputs": [],
      "payable": false,
      "stateMutability": "nonpayable",
      "type": "function"
    },
    {
      "constant": false,
      "inputs": [
        {
          "name": "badgeID",
          "type": "string"
        }
      ],
      "name": "rejectTrustRelationship",
      "outputs": [],
      "payable": false,
      "stateMutability": "nonpayable",
      "type": "function"
    },
    {
      "constant": false,
      "inputs": [
        {
          "name": "badgeID",
          "type": "string"
        },
        {
          "name": "encoding",
          "type": "string"
        },
        {
          "name": "metadata",
          "type": "bytes"
        }
      ],
      "name": "terminateTrustRelationship",
      "outputs": [],
      "payable": false,
      "stateMutability": "nonpayable",
      "type": "function"
    },
    {
      "constant": false,
      "inputs": [
        {
          "name": "badgeID",
          "type": "string"
        },
        {
          "name": "attrID",
          "type": "string"
        }
      ],
      "name": "appendAttribute",
      "outputs": [],
      "payable": false,
      "stateMutability": "nonpayable",
      "type": "function"
    },
    {
      "constant": false,
      "inputs": [
        {
          "name": "attrID",
          "type": "string"
        }
      ],
      "name": "resetAttribute",
      "outputs": [],
      "payable": false,
      "stateMutability": "nonpayable",
      "type": "function"
    },
    {
      "constant": true,
      "inputs": [
        {
          "name": "badgeID",
          "type": "string"
        },
        {
          "name": "attrID",
          "type": "string"
        }
      ],
      "name": "fullAttribute",
      "outputs": [
        {
          "components": [
            {
              "name": "metadata",
              "type": "bytes"
            },
            {
              "name": "encoding",
              "type": "string"
            },
            {
              "name": "proof",
              "type": "string"
            },
            {
              "name": "hashAlgo",
              "type": "string"
            },
            {
              "name": "shared",
              "type": "bool"
            }
          ],
          "name": "",
          "type": "tuple"
        }
      ],
      "payable": false,
      "stateMutability": "view",
      "type": "function"
    },
    {
      "constant": true,
      "inputs": [
        {
          "name": "attrID",
          "type": "string"
        }
      ],
      "name": "attributeBadgeList",
      "outputs": [
        {
          "name": "tmpBadgesList",
          "type": "string[]"
        }
      ],
      "payable": false,
      "stateMutability": "view",
      "type": "function"
    },
    {
      "constant": true,
      "inputs": [
        {
          "name": "badgeID",
          "type": "string"
        }
      ],
      "name": "fullBadge",
      "outputs": [
        {
          "components": [
            {
              "name": "metadata",
              "type": "bytes"
            },
            {
              "name": "encoding",
              "type": "string"
            },
            {
              "name": "signingKey",
              "type": "address"
            },
            {
              "name": "state",
              "type": "uint8"
            },
            {
              "name": "attributeList",
              "type": "string[]"
            }
          ],
          "name": "",
          "type": "tuple"
        }
      ],
      "payable": false,
      "stateMutability": "view",
      "type": "function"
    }
  ],
  "bytecode": "0x60806040523480156200001157600080fd5b5060405162003e9238038062003e9283398101806040526200003791908101906200033e565b60008251116200007e576040517f08c379a0000000000000000000000000000000000000000000000000000000008152600401620000759062000404565b60405180910390fd5b81600590805190602001906200009692919062000150565b508060049080519060200190620000af929190620001d7565b5033600260006101000a81548173ffffffffffffffffffffffffffffffffffffffff021916908373ffffffffffffffffffffffffffffffffffffffff160217905550436003819055503373ffffffffffffffffffffffffffffffffffffffff167f165ff580425d3f7a30f6b3ddbbf2c4d4a47dc220121ede2a2447cc3c20dba83d4360405162000140919062000426565b60405180910390a250506200051c565b828054600181600116156101000203166002900490600052602060002090601f016020900481019282601f106200019357805160ff1916838001178555620001c4565b82800160010185558215620001c4579182015b82811115620001c3578251825591602001919060010190620001a6565b5b509050620001d391906200025e565b5090565b828054600181600116156101000203166002900490600052602060002090601f016020900481019282601f106200021a57805160ff19168380011785556200024b565b828001600101855582156200024b579182015b828111156200024a5782518255916020019190600101906200022d565b5b5090506200025a91906200025e565b5090565b6200028391905b808211156200027f57600081600090555060010162000265565b5090565b90565b600082601f8301126200029857600080fd5b8151620002af620002a98262000471565b62000443565b91508082526020830160208301858383011115620002cc57600080fd5b620002d9838284620004e6565b50505092915050565b600082601f830112620002f457600080fd5b81516200030b62000305826200049e565b62000443565b915080825260208301602083018583830111156200032857600080fd5b62000335838284620004e6565b50505092915050565b600080604083850312156200035257600080fd5b600083015167ffffffffffffffff8111156200036d57600080fd5b6200037b85828601620002e2565b925050602083015167ffffffffffffffff8111156200039957600080fd5b620003a78582860162000286565b9150509250929050565b6000620003c0601a83620004cb565b91507f6e6f6e656d70747920656e636f64696e672072657175697265640000000000006000830152602082019050919050565b620003fe81620004dc565b82525050565b600060208201905081810360008301526200041f81620003b1565b9050919050565b60006020820190506200043d6000830184620003f3565b92915050565b6000604051905081810181811067ffffffffffffffff821117156200046757600080fd5b8060405250919050565b600067ffffffffffffffff8211156200048957600080fd5b601f19601f8301169050602081019050919050565b600067ffffffffffffffff821115620004b657600080fd5b601f19601f8301169050602081019050919050565b600082825260208201905092915050565b6000819050919050565b60005b8381101562000506578082015181840152602081019050620004e9565b8381111562000516576000848401525b50505050565b613966806200052c6000396000f3fe608060405234801561001057600080fd5b50600436106100ea5760003560e01c8063a0f0c72c1161008c578063abadc70011610066578063abadc70014610237578063ef7e0a1f14610253578063f4e513fd1461026f578063ffa1ad741461029f576100ea565b8063a0f0c72c146101df578063a5eb6ff2146101fd578063a73bbe0a1461021b576100ea565b8063350e52ce116100c8578063350e52ce146101575780633e63686a146101755780635a7bc2f0146101a557806369f683d0146101c1576100ea565b806309c7e286146100ef5780630ef90f3d1461011f578063332050f31461013b575b600080fd5b610109600480360361010491908101906127e8565b6102bd565b604051610116919061331d565b60405180910390f35b61013960048036036101349190810190612abd565b6105d6565b005b610155600480360361015091908101906127e8565b6107c0565b005b61015f610b94565b60405161016c9190613361565b60405180910390f35b61018f600480360361018a91908101906127e8565b610c32565b60405161019c91906135b8565b60405180910390f35b6101bf60048036036101ba9190810190612a51565b610eff565b005b6101c96111b4565b6040516101d69190613302565b60405180910390f35b6101e76111da565b6040516101f491906135da565b60405180910390f35b6102056111e0565b604051610212919061333f565b60405180910390f35b610235600480360361023091908101906128a2565b61127e565b005b610251600480360361024c91908101906129ba565b61148f565b005b61026d600480360361026891908101906128e3565b61189a565b005b6102896004803603610284919081019061282d565b611e65565b6040516102969190613596565b60405180910390f35b6102a7612166565b6040516102b49190613361565b60405180910390f35b606060008060608086868080601f016020809104026020016040519081016040528093929190818152602001838380828437600081840152601f19601f820116905080830192505050505050509050600080549050925060008090505b83811015610447576000818154811061032f57fe5b906000526020600020018054600181600116156101000203166002900480601f0160208091040260200160405190810160405280929190818152602001828054600181600116156101000203166002900480156103cd5780601f106103a2576101008083540402835291602001916103cd565b820191906000526020600020905b8154815290600101906020018083116103b057829003601f168201915b5050505050925060006001846040516103e691906132eb565b908152602001604051809103902090506000816004018460405161040a91906132eb565b908152602001604051809103902090508060040160009054906101000a900460ff1615610438576001870196505b5050808060010191505061031a565b508360405190808252806020026020018201604052801561047c57816020015b60608152602001906001900390816104675790505b5094508451925060008090505b838110156105c8576000818154811061049e57fe5b906000526020600020018054600181600116156101000203166002900480601f01602080910402602001604051908101604052809291908181526020018280546001816001161561010002031660029004801561053c5780601f106105115761010080835404028352916020019161053c565b820191906000526020600020905b81548152906001019060200180831161051f57829003601f168201915b50505050509250600060018460405161055591906132eb565b908152602001604051809103902090506000816004018460405161057991906132eb565b908152602001604051809103902090508060040160009054906101000a900460ff16156105b957848884815181106105ad57fe5b60200260200101819052505b50508080600101915050610489565b508494505050505092915050565b60006001846040516105e891906132eb565b9081526020016040518091039020905060008160020160009054906101000a900473ffffffffffffffffffffffffffffffffffffffff169050600260009054906101000a900473ffffffffffffffffffffffffffffffffffffffff1673ffffffffffffffffffffffffffffffffffffffff163373ffffffffffffffffffffffffffffffffffffffff1614806106a857508073ffffffffffffffffffffffffffffffffffffffff163373ffffffffffffffffffffffffffffffffffffffff16145b6106e7576040517f08c379a00000000000000000000000000000000000000000000000000000000081526004016106de90613436565b60405180910390fd5b828260000190805190602001906106ff92919061219f565b508382600101908051906020019061071892919061221f565b5060048260020160146101000a81548160ff0219169083600481111561073a57fe5b02179055508073ffffffffffffffffffffffffffffffffffffffff163373ffffffffffffffffffffffffffffffffffffffff167fdeb3e579a52767c27c2e7e8672481f5a7a5b32f4a50b59cdaa92b0a2580e7294878560020160149054906101000a900460ff16436040516107b193929190613383565b60405180910390a35050505050565b600260009054906101000a900473ffffffffffffffffffffffffffffffffffffffff1673ffffffffffffffffffffffffffffffffffffffff163373ffffffffffffffffffffffffffffffffffffffff1614610850576040517f08c379a000000000000000000000000000000000000000000000000000000000815260040161084790613576565b60405180910390fd5b600060608084848080601f016020809104026020016040519081016040528093929190818152602001838380828437600081840152601f19601f82011690508083019250505050505050905060008080549050905060008090505b81811015610b8b57600081815481106108c057fe5b906000526020600020018054600181600116156101000203166002900480601f01602080910402602001604051908101604052809291908181526020018280546001816001161561010002031660029004801561095e5780601f106109335761010080835404028352916020019161095e565b820191906000526020600020905b81548152906001019060200180831161094157829003601f168201915b50505050509350600060018560405161097791906132eb565b908152602001604051809103902090506000816004018560405161099b91906132eb565b908152602001604051809103902090508060040160009054906101000a900460ff166109c8575050610b7e565b81600401856040516109da91906132eb565b9081526020016040518091039020600080820160006109f9919061229f565b600182016000610a0991906122e7565b600282016000610a1991906122e7565b600382016000610a2991906122e7565b6004820160006101000a81549060ff0219169055505060018160040160006101000a81548160ff0219169083151502179055508160020160009054906101000a900473ffffffffffffffffffffffffffffffffffffffff16965060008260020160146101000a81548160ff02191690836004811115610aa457fe5b02179055508673ffffffffffffffffffffffffffffffffffffffff163373ffffffffffffffffffffffffffffffffffffffff167f1d71db0a4dde8ba76a93bc358086b410ddae27d77798191e30696fa2ec7fd568878943604051610b0a939291906133c1565b60405180910390a38673ffffffffffffffffffffffffffffffffffffffff163373ffffffffffffffffffffffffffffffffffffffff167ffb154d2b6af77ec70d43025b29808866006f135ad2d4451a1c4a6ab4c10044e3878943604051610b73939291906133c1565b60405180910390a350505b80806001019150506108ab565b50505050505050565b60058054600181600116156101000203166002900480601f016020809104026020016040519081016040528092919081815260200182805460018160011615610100020316600290048015610c2a5780601f10610bff57610100808354040283529160200191610c2a565b820191906000526020600020905b815481529060010190602001808311610c0d57829003601f168201915b505050505081565b610c3a61232f565b600060018484604051610c4e9291906132d2565b908152602001604051809103902090506040518060a00160405280826000018054600181600116156101000203166002900480601f016020809104026020016040519081016040528092919081815260200182805460018160011615610100020316600290048015610d015780601f10610cd657610100808354040283529160200191610d01565b820191906000526020600020905b815481529060010190602001808311610ce457829003601f168201915b50505050508152602001826001018054600181600116156101000203166002900480601f016020809104026020016040519081016040528092919081815260200182805460018160011615610100020316600290048015610da35780601f10610d7857610100808354040283529160200191610da3565b820191906000526020600020905b815481529060010190602001808311610d8657829003601f168201915b505050505081526020018260020160009054906101000a900473ffffffffffffffffffffffffffffffffffffffff1673ffffffffffffffffffffffffffffffffffffffff1681526020018260020160149054906101000a900460ff166004811115610e0a57fe5b815260200182600301805480602002602001604051908101604052809291908181526020016000905b82821015610eef578382906000526020600020018054600181600116156101000203166002900480601f016020809104026020016040519081016040528092919081815260200182805460018160011615610100020316600290048015610edb5780601f10610eb057610100808354040283529160200191610edb565b820191906000526020600020905b815481529060010190602001808311610ebe57829003601f168201915b505050505081526020019060010190610e33565b5050505081525091505092915050565b600260009054906101000a900473ffffffffffffffffffffffffffffffffffffffff1673ffffffffffffffffffffffffffffffffffffffff163373ffffffffffffffffffffffffffffffffffffffff1614610f8f576040517f08c379a0000000000000000000000000000000000000000000000000000000008152600401610f8690613576565b60405180910390fd5b6000600183604051610fa191906132eb565b9081526020016040518091039020905060008160020160009054906101000a900473ffffffffffffffffffffffffffffffffffffffff169050600073ffffffffffffffffffffffffffffffffffffffff168173ffffffffffffffffffffffffffffffffffffffff16141561104a576040517f08c379a000000000000000000000000000000000000000000000000000000000815260040161104190613456565b60405180910390fd5b6000826004018460405161105e91906132eb565b908152602001604051809103902090508060040160009054906101000a900460ff16156110c0576040517f08c379a00000000000000000000000000000000000000000000000000000000081526004016110b7906134d6565b60405180910390fd5b60018160040160006101000a81548160ff0219169083151502179055508260030184908060018154018082558091505090600182039060005260206000200160009091929091909150908051906020019061111c92919061221f565b505060008360020160146101000a81548160ff0219169083600481111561113f57fe5b02179055508173ffffffffffffffffffffffffffffffffffffffff163373ffffffffffffffffffffffffffffffffffffffff167ffb154d2b6af77ec70d43025b29808866006f135ad2d4451a1c4a6ab4c10044e38688436040516111a5939291906133c1565b60405180910390a35050505050565b600260009054906101000a900473ffffffffffffffffffffffffffffffffffffffff1681565b60035481565b60048054600181600116156101000203166002900480601f0160208091040260200160405190810160405280929190818152602001828054600181600116156101000203166002900480156112765780601f1061124b57610100808354040283529160200191611276565b820191906000526020600020905b81548152906001019060200180831161125957829003601f168201915b505050505081565b80600060018260405161129191906132eb565b908152602001604051809103902090508060020160009054906101000a900473ffffffffffffffffffffffffffffffffffffffff1673ffffffffffffffffffffffffffffffffffffffff163373ffffffffffffffffffffffffffffffffffffffff1614611333576040517f08c379a000000000000000000000000000000000000000000000000000000000815260040161132a906134f6565b60405180910390fd5b600060018460405161134591906132eb565b9081526020016040518091039020905060008160020160009054906101000a900473ffffffffffffffffffffffffffffffffffffffff1690506000600481111561138b57fe5b8260020160149054906101000a900460ff1660048111156113a857fe5b146113e8576040517f08c379a00000000000000000000000000000000000000000000000000000000081526004016113df90613476565b60405180910390fd5b60018260020160146101000a81548160ff0219169083600481111561140957fe5b02179055508073ffffffffffffffffffffffffffffffffffffffff163373ffffffffffffffffffffffffffffffffffffffff167fdeb3e579a52767c27c2e7e8672481f5a7a5b32f4a50b59cdaa92b0a2580e7294878560020160149054906101000a900460ff164360405161148093929190613383565b60405180910390a35050505050565b8260006001826040516114a291906132eb565b908152602001604051809103902090508060020160009054906101000a900473ffffffffffffffffffffffffffffffffffffffff1673ffffffffffffffffffffffffffffffffffffffff163373ffffffffffffffffffffffffffffffffffffffff1614611544576040517f08c379a000000000000000000000000000000000000000000000000000000000815260040161153b906134f6565b60405180910390fd5b600060018660405161155691906132eb565b90815260200160405180910390209050606061157061237f565b6115786123a6565b600088519050808560030180549050146115c7576040517f08c379a00000000000000000000000000000000000000000000000000000000081526004016115be90613516565b60405180910390fd5b600260048111156115d457fe5b8560020160149054906101000a900460ff1660048111156115f157fe5b1415611632576040517f08c379a0000000000000000000000000000000000000000000000000000000008152600401611629906134b6565b60405180910390fd5b606060006001905060008090505b838110156117b4578b818151811061165457fe5b602002602001015195506040518060a001604052808760006004811061167657fe5b602002015181526020018760016004811061168d57fe5b60200201518152602001876002600481106116a457fe5b602002015181526020018c83815181106116ba57fe5b60200260200101518152602001876003600481106116d457fe5b6020020151815250945084600001519650600088600401886040516116f991906132eb565b908152602001604051809103902090508060040160009054906101000a900460ff1661175a576040517f08c379a000000000000000000000000000000000000000000000000000000000815260040161175190613536565b60405180910390fd5b8560200151935060008451141561177057600092505b8381600201908051906020019061178892919061221f565b5085604001518160030190805190602001906117a592919061221f565b50508080600101915050611640565b5080156117e25760028760020160146101000a81548160ff021916908360048111156117dc57fe5b02179055505b60608c905060008860020160009054906101000a900473ffffffffffffffffffffffffffffffffffffffff1690508073ffffffffffffffffffffffffffffffffffffffff163373ffffffffffffffffffffffffffffffffffffffff167fdeb3e579a52767c27c2e7e8672481f5a7a5b32f4a50b59cdaa92b0a2580e7294848c60020160149054906101000a900460ff164360405161188293929190613383565b60405180910390a35050505050505050505050505050565b600260009054906101000a900473ffffffffffffffffffffffffffffffffffffffff1673ffffffffffffffffffffffffffffffffffffffff163373ffffffffffffffffffffffffffffffffffffffff161461192a576040517f08c379a000000000000000000000000000000000000000000000000000000000815260040161192190613576565b60405180910390fd5b600082511161196e576040517f08c379a000000000000000000000000000000000000000000000000000000000815260040161196590613556565b60405180910390fd5b600073ffffffffffffffffffffffffffffffffffffffff168473ffffffffffffffffffffffffffffffffffffffff1614156119de576040517f08c379a00000000000000000000000000000000000000000000000000000000081526004016119d590613496565b60405180910390fd5b606060006001876040516119f291906132eb565b9081526020016040518091039020905060008160020160009054906101000a900473ffffffffffffffffffffffffffffffffffffffff16905060008260030180549050905060008090505b81811015611b7d57836003018181548110611a5457fe5b906000526020600020018054600181600116156101000203166002900480601f016020809104026020016040519081016040528092919081815260200182805460018160011615610100020316600290048015611af25780601f10611ac757610100808354040283529160200191611af2565b820191906000526020600020905b815481529060010190602001808311611ad557829003601f168201915b505050505094508360040185604051611b0b91906132eb565b908152602001604051809103902060008082016000611b2a919061229f565b600182016000611b3a91906122e7565b600282016000611b4a91906122e7565b600382016000611b5a91906122e7565b6004820160006101000a81549060ff021916905550508080600101915050611a3d565b50600073ffffffffffffffffffffffffffffffffffffffff168273ffffffffffffffffffffffffffffffffffffffff161415611bf3576000899080600181540180825580915050906001820390600052602060002001600090919290919091509080519060200190611bf092919061221f565b50505b600189604051611c0391906132eb565b908152602001604051809103902060008082016000611c22919061229f565b600182016000611c3291906122e7565b6002820160006101000a81549073ffffffffffffffffffffffffffffffffffffffff02191690556002820160146101000a81549060ff0219169055600382016000611c7d91906123d5565b5050600189604051611c8f91906132eb565b9081526020016040518091039020925084836000019080519060200190611cb792919061219f565b5085836001019080519060200190611cd092919061221f565b50878360020160006101000a81548173ffffffffffffffffffffffffffffffffffffffff021916908373ffffffffffffffffffffffffffffffffffffffff16021790555060008360020160146101000a81548160ff02191690836004811115611d3557fe5b02179055508651905060008090505b81811015611df257878181518110611d5857fe5b6020026020010151945083600301859080600181540180825580915050906001820390600052602060002001600090919290919091509080519060200190611da192919061221f565b505060008460040186604051611db791906132eb565b9081526020016040518091039020905060018160040160006101000a81548160ff021916908315150217905550508080600101915050611d44565b508773ffffffffffffffffffffffffffffffffffffffff163373ffffffffffffffffffffffffffffffffffffffff167f76952cd923cf84a5be85cc0b76fa4b314046f0d0b4b43b98deca8d10120ed3f78b43604051611e52929190613406565b60405180910390a3505050505050505050565b611e6d6123f6565b60018585604051611e7f9291906132d2565b90815260200160405180910390206004018383604051611ea09291906132d2565b90815260200160405180910390206040518060a0016040529081600082018054600181600116156101000203166002900480601f016020809104026020016040519081016040528092919081815260200182805460018160011615610100020316600290048015611f525780601f10611f2757610100808354040283529160200191611f52565b820191906000526020600020905b815481529060010190602001808311611f3557829003601f168201915b50505050508152602001600182018054600181600116156101000203166002900480601f016020809104026020016040519081016040528092919081815260200182805460018160011615610100020316600290048015611ff45780601f10611fc957610100808354040283529160200191611ff4565b820191906000526020600020905b815481529060010190602001808311611fd757829003601f168201915b50505050508152602001600282018054600181600116156101000203166002900480601f0160208091040260200160405190810160405280929190818152602001828054600181600116156101000203166002900480156120965780601f1061206b57610100808354040283529160200191612096565b820191906000526020600020905b81548152906001019060200180831161207957829003601f168201915b50505050508152602001600382018054600181600116156101000203166002900480601f0160208091040260200160405190810160405280929190818152602001828054600181600116156101000203166002900480156121385780601f1061210d57610100808354040283529160200191612138565b820191906000526020600020905b81548152906001019060200180831161211b57829003601f168201915b505050505081526020016004820160009054906101000a900460ff1615151515815250509050949350505050565b6040518060400160405280600581526020017f362e312e3000000000000000000000000000000000000000000000000000000081525081565b828054600181600116156101000203166002900490600052602060002090601f016020900481019282601f106121e057805160ff191683800117855561220e565b8280016001018555821561220e579182015b8281111561220d5782518255916020019190600101906121f2565b5b50905061221b9190612427565b5090565b828054600181600116156101000203166002900490600052602060002090601f016020900481019282601f1061226057805160ff191683800117855561228e565b8280016001018555821561228e579182015b8281111561228d578251825591602001919060010190612272565b5b50905061229b9190612427565b5090565b50805460018160011615610100020316600290046000825580601f106122c557506122e4565b601f0160209004906000526020600020908101906122e39190612427565b5b50565b50805460018160011615610100020316600290046000825580601f1061230d575061232c565b601f01602090049060005260206000209081019061232b9190612427565b5b50565b6040518060a001604052806060815260200160608152602001600073ffffffffffffffffffffffffffffffffffffffff1681526020016000600481111561237257fe5b8152602001606081525090565b60405180608001604052806004905b606081526020019060019003908161238e5790505090565b6040518060a0016040528060608152602001606081526020016060815260200160608152602001606081525090565b50805460008255906000526020600020908101906123f3919061244c565b50565b6040518060a00160405280606081526020016060815260200160608152602001606081526020016000151581525090565b61244991905b8082111561244557600081600090555060010161242d565b5090565b90565b61247591905b80821115612471576000818161246891906122e7565b50600101612452565b5090565b90565b60008135905061248781613915565b92915050565b600082601f83011261249e57600080fd5b81356124b16124ac82613622565b6135f5565b9150818183526020840193506020810190508360005b838110156124f757813586016124dd8882612575565b8452602084019350602083019250506001810190506124c7565b5050505092915050565b600082601f83011261251257600080fd5b81356125256125208261364a565b6135f5565b9150818183526020840193506020810190508360005b8381101561256b5781358601612551888261264e565b84526020840193506020830192505060018101905061253b565b5050505092915050565b600082601f83011261258657600080fd5b600461259961259482613672565b6135f5565b9150818360005b838110156125d057813586016125b68882612740565b8452602084019350602083019250506001810190506125a0565b5050505092915050565b600082601f8301126125eb57600080fd5b81356125fe6125f982613694565b6135f5565b9150818183526020840193506020810190508360005b83811015612644578135860161262a8882612740565b845260208401935060208301925050600181019050612614565b5050505092915050565b600082601f83011261265f57600080fd5b813561267261266d826136bc565b6135f5565b9150808252602083016020830185838301111561268e57600080fd5b6126998382846138b5565b50505092915050565b600082601f8301126126b357600080fd5b81356126c66126c1826136e8565b6135f5565b915080825260208301602083018583830111156126e257600080fd5b6126ed8382846138b5565b50505092915050565b60008083601f84011261270857600080fd5b8235905067ffffffffffffffff81111561272157600080fd5b60208301915083600182028301111561273957600080fd5b9250929050565b600082601f83011261275157600080fd5b813561276461275f82613714565b6135f5565b9150808252602083016020830185838301111561278057600080fd5b61278b8382846138b5565b50505092915050565b600082601f8301126127a557600080fd5b81356127b86127b382613740565b6135f5565b915080825260208301602083018583830111156127d457600080fd5b6127df8382846138b5565b50505092915050565b600080602083850312156127fb57600080fd5b600083013567ffffffffffffffff81111561281557600080fd5b612821858286016126f6565b92509250509250929050565b6000806000806040858703121561284357600080fd5b600085013567ffffffffffffffff81111561285d57600080fd5b612869878288016126f6565b9450945050602085013567ffffffffffffffff81111561288857600080fd5b612894878288016126f6565b925092505092959194509250565b6000602082840312156128b457600080fd5b600082013567ffffffffffffffff8111156128ce57600080fd5b6128da84828501612794565b91505092915050565b600080600080600060a086880312156128fb57600080fd5b600086013567ffffffffffffffff81111561291557600080fd5b61292188828901612794565b955050602061293288828901612478565b945050604086013567ffffffffffffffff81111561294f57600080fd5b61295b888289016125da565b935050606086013567ffffffffffffffff81111561297857600080fd5b61298488828901612794565b925050608086013567ffffffffffffffff8111156129a157600080fd5b6129ad888289016126a2565b9150509295509295909350565b6000806000606084860312156129cf57600080fd5b600084013567ffffffffffffffff8111156129e957600080fd5b6129f586828701612794565b935050602084013567ffffffffffffffff811115612a1257600080fd5b612a1e8682870161248d565b925050604084013567ffffffffffffffff811115612a3b57600080fd5b612a4786828701612501565b9150509250925092565b60008060408385031215612a6457600080fd5b600083013567ffffffffffffffff811115612a7e57600080fd5b612a8a85828601612794565b925050602083013567ffffffffffffffff811115612aa757600080fd5b612ab385828601612794565b9150509250929050565b600080600060608486031215612ad257600080fd5b600084013567ffffffffffffffff811115612aec57600080fd5b612af886828701612794565b935050602084013567ffffffffffffffff811115612b1557600080fd5b612b2186828701612794565b925050604084013567ffffffffffffffff811115612b3e57600080fd5b612b4a868287016126a2565b9150509250925092565b6000612b608383612d9e565b905092915050565b612b7181613848565b82525050565b612b8081613848565b82525050565b6000612b9182613791565b612b9b81856137e8565b935083602082028501612bad85613779565b8060005b85811015612be95784840389528151612bca8582612b54565b9450612bd5836137ca565b925060208a01995050600181019050612bb1565b50829750879550505050505092915050565b6000612c0682613786565b612c1081856137d7565b935083602082028501612c228561376c565b8060005b85811015612c5e5784840389528151612c3f8582612b54565b9450612c4a836137bd565b925060208a01995050600181019050612c26565b50829750879550505050505092915050565b612c798161385a565b82525050565b6000612c8a8261379c565b612c9481856137f9565b9350612ca48185602086016138c4565b612cad816138f7565b840191505092915050565b6000612cc38261379c565b612ccd818561380a565b9350612cdd8185602086016138c4565b612ce6816138f7565b840191505092915050565b612cfa816138a3565b82525050565b612d09816138a3565b82525050565b6000612d1b838561383d565b9350612d288385846138b5565b82840190509392505050565b6000612d3f826137b2565b612d49818561382c565b9350612d598185602086016138c4565b612d62816138f7565b840191505092915050565b6000612d78826137b2565b612d82818561383d565b9350612d928185602086016138c4565b80840191505092915050565b6000612da9826137a7565b612db3818561381b565b9350612dc38185602086016138c4565b612dcc816138f7565b840191505092915050565b6000612de2826137a7565b612dec818561382c565b9350612dfc8185602086016138c4565b612e05816138f7565b840191505092915050565b6000612e1d603c8361382c565b91507f41636365737344656e6965643a2043616c6c6572206973206e6f74206465736960008301527f676e6174656420746f206368616e6765207468697320737461746521000000006020830152604082019050919050565b6000612e8360238361382c565b91507f63616e6e6f74206164642061747472696275746520746f20656d70747920626160008301527f64676500000000000000000000000000000000000000000000000000000000006020830152604082019050919050565b6000612ee960228361382c565b91507f6261646765206973206e6f7420696e206120636f6d70617469626c652073746160008301527f74650000000000000000000000000000000000000000000000000000000000006020830152604082019050919050565b6000612f4f601a8361382c565b91507f696e76616c6964206b65792073657420666f72207369676e65720000000000006000830152602082019050919050565b6000612f8f601f8361382c565b91507f62616467652068617320616c7265616479206265656e207665726966696564006000830152602082019050919050565b6000612fcf60288361382c565b91507f63616e6e6f742061646420617474726962757465207468617420616c7265616460008301527f79206578697374730000000000000000000000000000000000000000000000006020830152604082019050919050565b6000613035603a8361382c565b91507f41636365737344656e6965643a2043616c6c6572206973206e6f74207468652060008301527f64657369676e617465642054727573746564205369676e6572210000000000006020830152604082019050919050565b600061309b60228361382c565b91507f6174747269627574657320696e707574206c69737420697320696e636f72726560008301527f63740000000000000000000000000000000000000000000000000000000000006020830152604082019050919050565b600061310160188361382c565b91507f61747472696275746520646f6573206e6f7420657869737400000000000000006000830152602082019050919050565b6000613141601a8361382c565b91507f6e6f6e656d70747920656e636f64696e672072657175697265640000000000006000830152602082019050919050565b600061318160208361382c565b91507f63616c6c6572206973206e6f742074686520436f6e7472616374204f776e65726000830152602082019050919050565b600060a08301600083015184820360008601526131d18282612c7f565b915050602083015184820360208601526131eb8282612d9e565b915050604083015184820360408601526132058282612d9e565b9150506060830151848203606086015261321f8282612d9e565b91505060808301516132346080860182612c70565b508091505092915050565b600060a083016000830151848203600086015261325c8282612c7f565b915050602083015184820360208601526132768282612d9e565b915050604083015161328b6040860182612b68565b50606083015161329e6060860182612cf1565b50608083015184820360808601526132b68282612bfb565b9150508091505092915050565b6132cc81613899565b82525050565b60006132df828486612d0f565b91508190509392505050565b60006132f78284612d6d565b915081905092915050565b60006020820190506133176000830184612b77565b92915050565b600060208201905081810360008301526133378184612b86565b905092915050565b600060208201905081810360008301526133598184612cb8565b905092915050565b6000602082019050818103600083015261337b8184612dd7565b905092915050565b6000606082019050818103600083015261339d8186612d34565b90506133ac6020830185612d00565b6133b960408301846132c3565b949350505050565b600060608201905081810360008301526133db8186612d34565b905081810360208301526133ef8185612d34565b90506133fe60408301846132c3565b949350505050565b600060408201905081810360008301526134208185612d34565b905061342f60208301846132c3565b9392505050565b6000602082019050818103600083015261344f81612e10565b9050919050565b6000602082019050818103600083015261346f81612e76565b9050919050565b6000602082019050818103600083015261348f81612edc565b9050919050565b600060208201905081810360008301526134af81612f42565b9050919050565b600060208201905081810360008301526134cf81612f82565b9050919050565b600060208201905081810360008301526134ef81612fc2565b9050919050565b6000602082019050818103600083015261350f81613028565b9050919050565b6000602082019050818103600083015261352f8161308e565b9050919050565b6000602082019050818103600083015261354f816130f4565b9050919050565b6000602082019050818103600083015261356f81613134565b9050919050565b6000602082019050818103600083015261358f81613174565b9050919050565b600060208201905081810360008301526135b081846131b4565b905092915050565b600060208201905081810360008301526135d2818461323f565b905092915050565b60006020820190506135ef60008301846132c3565b92915050565b6000604051905081810181811067ffffffffffffffff8211171561361857600080fd5b8060405250919050565b600067ffffffffffffffff82111561363957600080fd5b602082029050602081019050919050565b600067ffffffffffffffff82111561366157600080fd5b602082029050602081019050919050565b600067ffffffffffffffff82111561368957600080fd5b602082029050919050565b600067ffffffffffffffff8211156136ab57600080fd5b602082029050602081019050919050565b600067ffffffffffffffff8211156136d357600080fd5b601f19601f8301169050602081019050919050565b600067ffffffffffffffff8211156136ff57600080fd5b601f19601f8301169050602081019050919050565b600067ffffffffffffffff82111561372b57600080fd5b601f19601f8301169050602081019050919050565b600067ffffffffffffffff82111561375757600080fd5b601f19601f8301169050602081019050919050565b6000602082019050919050565b6000602082019050919050565b600081519050919050565b600081519050919050565b600081519050919050565b600081519050919050565b600081519050919050565b6000602082019050919050565b6000602082019050919050565b600082825260208201905092915050565b600082825260208201905092915050565b600082825260208201905092915050565b600082825260208201905092915050565b600082825260208201905092915050565b600082825260208201905092915050565b600081905092915050565b600061385382613879565b9050919050565b60008115159050919050565b600081905061387482613908565b919050565b600073ffffffffffffffffffffffffffffffffffffffff82169050919050565b6000819050919050565b60006138ae82613866565b9050919050565b82818337600083830152505050565b60005b838110156138e25780820151818401526020810190506138c7565b838111156138f1576000848401525b50505050565b6000601f19601f8301169050919050565b6005811061391257fe5b50565b61391e81613848565b811461392957600080fd5b5056fea265627a7a72305820c69b5c4cc3522cedc4382c11241378157036e670e56b25aa34c591ec7a05eae26c6578706572696d656e74616cf50037",
  "source": "pragma solidity ^0.5.0;\npragma experimental ABIEncoderV2;\n\nimport \"./TrustRelationship.sol\";\n\ncontract Identity is TrustRelationship {\n\n    address public OwnerKey;\n    uint public CreationBlock;\n\n    bytes public Metadata;\n    string public Encoding;\n\n    string public constant VERSION = \"6.1.0\";\n\n    event ContractCreatedEvent(\n         address indexed ownerKey, uint creationBlock\n    );\n\n    modifier isOwner() {\n        require (\n            msg.sender == OwnerKey,\n            \"caller is not the Contract Owner\"\n        );\n\n        _;\n    }\n\n    constructor (\n        string memory encoding, bytes memory metadata\n    ) public {\n\n        // TODO: put checks on input into a modifier\n\n        require(\n            bytes(encoding).length > 0,\n            \"nonempty encoding required\"\n        );\n\n        Encoding = encoding;\n        Metadata = metadata;\n\n        OwnerKey = msg.sender;\n        CreationBlock = block.number;\n\n        emit ContractCreatedEvent(msg.sender, block.number);\n    }\n\n    function createTrustRelationship(\n        string memory badgeID, address signingKey, string[] memory attrIDs,\n        string memory encoding, bytes memory metadata\n    ) public isOwner() {\n\n        require(\n            bytes(encoding).length > 0,\n            \"nonempty encoding required\"\n        );\n\n        require(\n            signingKey != address(0),\n            \"invalid key set for signer\"\n        );\n\n        string memory attrID;\n        Badge storage b = Badges[badgeID];\n\n        address storedKey = b.signingKey;\n        uint length = b.attributeList.length;\n\n        // all stored attributes have to be deleted explicitly\n        for (uint i = 0; i < length; i++) {\n            attrID = b.attributeList[i];\n\n            delete b.attributes[attrID];\n        }\n\n        if (storedKey == address(0)) {\n            badgesList.push(badgeID);\n        }\n\n        delete Badges[badgeID];\n        b = Badges[badgeID];\n\n        b.metadata = metadata;\n        b.encoding = encoding;\n\n        b.signingKey = signingKey;\n        b.state = SignatureStates.PENDING;\n\n        // string memory attrID;\n        length = attrIDs.length;\n        for (uint i = 0; i < length; i++) {\n            attrID = attrIDs[i];\n            b.attributeList.push(attrID);\n\n            Attribute storage a = b.attributes[attrID];\n            a.shared = true;\n        }\n\n        emit TrustRelationshipCreatedEvent(\n            msg.sender, signingKey, badgeID, block.number\n        );\n    }\n\n    function verifyTrustRelationship(\n        string memory badgeID, string[4][] memory checkedData, // Attestation[] memory checkedData,\n        bytes[] memory checkedMetaData\n    ) public isTrustedSigner(badgeID) {\n\n        Badge storage b = Badges[badgeID];\n\n        string memory attrID;\n        string[4] memory tmp;\n\n        Attestation memory att;\n        uint length = checkedData.length;\n\n        require(\n            b.attributeList.length == length,\n            \"attributes input list is incorrect\"\n        );\n\n        require(\n            b.state != SignatureStates.VERIFIED,\n            \"badge has already been verified\"\n        );\n\n        string memory proof;\n        bool verify = true;\n\n        for (uint i = 0; i < length; i++) {\n            tmp = checkedData[i];\n            att = Attestation(\n                tmp[0], tmp[1], tmp[2], checkedMetaData[i], tmp[3]\n            );\n\n            attrID = att.attrID;\n            Attribute storage a = b.attributes[attrID];\n\n            require(\n                a.shared,\n                \"attribute does not exist\"\n            );\n\n            proof = att.proof;\n            if (bytes(proof).length == 0) {\n                verify = false;\n            }\n\n            a.proof = proof;\n            a.hashAlgo = att.hashAlgo;\n        }\n\n        // NOTE: The require statements in this method ensure that only all the\n        // shared attributes can be attested by the trusted signer.\n        if (verify) {\n            b.state = SignatureStates.VERIFIED;\n        }\n\n        string memory bID = badgeID; // NOTE: Not sure why the compiler requires this?\n        address signingKey = b.signingKey;\n\n        emit TrustRelationshipSignEvent(\n            msg.sender, signingKey, bID, b.state, block.number\n        );\n    }\n\n    function rejectTrustRelationship(\n        string memory badgeID\n    ) public isTrustedSigner(badgeID) {\n\n        Badge storage b = Badges[badgeID];\n        address signingKey = b.signingKey;\n\n        require( // QUESTION: Does the state have to PENDING?\n            b.state == SignatureStates.PENDING,\n            \"badge is not in a compatible state\"\n        );\n\n        b.state = SignatureStates.REJECTED;\n        emit TrustRelationshipSignEvent(\n            msg.sender, signingKey, badgeID, b.state, block.number\n        );\n    }\n\n    function terminateTrustRelationship(\n        string memory badgeID, string memory encoding, bytes memory metadata\n    ) public {\n\n        Badge storage b = Badges[badgeID];\n        address storedKey = b.signingKey;\n\n        require(\n            msg.sender == OwnerKey || msg.sender == storedKey,\n            \"AccessDenied: Caller is not designated to change this state!\"\n        );\n\n        b.metadata = metadata;\n        b.encoding = encoding;\n\n        b.state = SignatureStates.TERMINATED;\n        emit TrustRelationshipSignEvent(\n            msg.sender, storedKey, badgeID, b.state, block.number\n        );\n    }\n\n    function appendAttribute(\n        string memory badgeID, string memory attrID\n    ) public isOwner() {\n\n        Badge storage b = Badges[badgeID];\n        address storedKey = b.signingKey;\n\n        require(\n            storedKey != address(0),\n            \"cannot add attribute to empty badge\"\n        );\n\n        Attribute storage a = b.attributes[attrID];\n\n        require(\n            !a.shared,\n            \"cannot add attribute that already exists\"\n        );\n\n        a.shared = true;\n        b.attributeList.push(attrID);\n\n        b.state = SignatureStates.PENDING;\n        emit AttributeProofChangeEvent(\n            msg.sender, storedKey, attrID, badgeID, block.number\n        );\n    }\n\n    function resetAttribute(\n        string calldata attrID\n    ) external isOwner() {\n\n        address signingKey;\n        string memory badgeID;\n\n        string memory aID = attrID;\n        uint length = badgesList.length;\n\n        for (uint i = 0; i < length; i++) {\n\n            badgeID = badgesList[i];\n            Badge storage b = Badges[badgeID];\n            Attribute storage a = b.attributes[aID];\n\n            if (!a.shared) {\n                // If the attribute is not part of the badge in this loop\n                // iteration, do nothing.\n\n                continue;\n            }\n\n            // Note: \"delete a\" would not be valid here as assignments to local\n            // variables referencing storage objects can only be made from\n            // existing storage objects.\n            delete b.attributes[aID];\n\n            a.shared = true;\n            signingKey = b.signingKey;\n            b.state = SignatureStates.PENDING;\n\n            emit BadgeStateResetEvent(\n                msg.sender, signingKey, aID, badgeID, block.number\n            );\n\n            emit AttributeProofChangeEvent(\n                msg.sender, signingKey, aID, badgeID, block.number\n            );\n        }\n    }\n\n    function fullAttribute(\n        string calldata badgeID, string calldata attrID\n    ) external view returns (Attribute memory) {\n        return Badges[badgeID].attributes[attrID];\n    }\n\n    function attributeBadgeList(\n        string calldata attrID\n    ) external view returns (string[] memory tmpBadgesList) {\n\n        uint ct;\n        uint length;\n\n        string memory badgeID;\n        string memory aID = attrID;\n\n        length = badgesList.length;\n        for (uint i = 0; i < length; i++) {\n\n            badgeID = badgesList[i];\n            Badge storage b = Badges[badgeID];\n            Attribute storage a = b.attributes[aID];\n\n            if (a.shared) {\n                ct += 1;\n            }\n        }\n\n        tmpBadgesList = new string[](ct);\n\n        length = tmpBadgesList.length;\n        for (uint i = 0; i < length; i++) {\n\n            badgeID = badgesList[i];\n            Badge storage b = Badges[badgeID];\n            Attribute storage a = b.attributes[aID];\n\n            if (a.shared) {\n                tmpBadgesList[i] = badgeID;\n            }\n        }\n\n        return tmpBadgesList;\n    }\n\n    function fullBadge(\n        string calldata badgeID\n    ) external view returns (BadgeView memory) {\n        Badge storage b = Badges[badgeID];\n\n        return BadgeView(\n            b.metadata, b.encoding, b.signingKey, b.state, b.attributeList\n        );\n    }\n}\n",
  "sourcePath": "/home/eugene/Documents/cryptocurrency/barbell/contracts/Identity.sol",
  "compiler": {
    "name": "solc",
    "version": "0.5.8+commit.23d335f2.Emscripten.clang"
  },
  "schemaVersion": "3.0.14",
  "updatedAt": "2020-09-07T09:58:10.110Z",
  "devdoc": {
    "methods": {}
  },
  "userdoc": {
    "methods": {}
  }
}