{
  "contractName": "Option",
  "abi": [
    {
      "constant": true,
      "inputs": [],
      "name": "underlying",
      "outputs": [
        {
          "name": "",
          "type": "address"
        }
      ],
      "payable": false,
      "stateMutability": "view",
      "type": "function"
    },
    {
      "inputs": [
        {
          "name": "_underlying",
          "type": "address"
        }
      ],
      "payable": false,
      "stateMutability": "nonpayable",
      "type": "constructor"
    },
    {
      "constant": false,
      "inputs": [
        {
          "name": "_amount",
          "type": "uint256"
        },
        {
          "name": "_expiry",
          "type": "uint256"
        }
      ],
      "name": "buyToOpen",
      "outputs": [],
      "payable": false,
      "stateMutability": "nonpayable",
      "type": "function"
    },
    {
      "constant": false,
      "inputs": [
        {
          "name": "_amount",
          "type": "uint256"
        },
        {
          "name": "_expiry",
          "type": "uint256"
        }
      ],
      "name": "sellToClose",
      "outputs": [],
      "payable": false,
      "stateMutability": "nonpayable",
      "type": "function"
    },
    {
      "constant": false,
      "inputs": [],
      "name": "addUnderlying",
      "outputs": [],
      "payable": false,
      "stateMutability": "nonpayable",
      "type": "function"
    }
  ],
  "bytecode": "0x608060405234801561001057600080fd5b5060405160208061026d8339810180604052602081101561003057600080fd5b810190808051906020019092919050505080600160006101000a81548173ffffffffffffffffffffffffffffffffffffffff021916908373ffffffffffffffffffffffffffffffffffffffff160217905550506101db806100926000396000f3fe608060405234801561001057600080fd5b506004361061004c5760003560e01c8063575a3f0a146100515780636f307dc31461005b57806386ac4189146100a5578063c823d967146100dd575b600080fd5b610059610115565b005b610063610117565b604051808273ffffffffffffffffffffffffffffffffffffffff1673ffffffffffffffffffffffffffffffffffffffff16815260200191505060405180910390f35b6100db600480360360408110156100bb57600080fd5b81019080803590602001909291908035906020019092919050505061013d565b005b610113600480360360408110156100f357600080fd5b8101908080359060200190929190803590602001909291905050506101ab565b005b565b600160009054906101000a900473ffffffffffffffffffffffffffffffffffffffff1681565b6040518060400160405280838152602001828152506000803373ffffffffffffffffffffffffffffffffffffffff1673ffffffffffffffffffffffffffffffffffffffff16815260200190815260200160002060008201518160000155602082015181600101559050505050565b505056fea165627a7a72305820e9df836d94f33fc5ad105eb60b7096ecc2d8f79bdbbc197f0910cfb50023e6230029",
  "source": "pragma solidity ^0.5.0;\n\n// pragma experimental ABIEncoderV2;\n\ncontract Option {\n\n    struct Vault {\n        uint256 expiry;\n        uint256 amount;\n    }\n\n    mapping(address => Vault) balances;\n\n    address public underlying;\n\n    // * Function with owner address that can buy tokens\n    // * Admin needs to have bought tokens ahead of time\n\n    constructor(address _underlying) public {\n        underlying = _underlying;\n    }\n\n    function buyToOpen(uint _amount, uint _expiry) public {\n        \n        // * check _expiry is valid\n        // * check the balance of the underlying is valid\n        // msg.value = price * _amount;\n\n        balances[msg.sender] = Vault(_amount, _expiry);\n    }\n\n    function sellToClose(uint _amount, uint _expiry) public {\n\n        // balances[msg.sender]\n    }\n\n    function addUnderlying() public {\n\n        // user ERC20 interfase and transfer\n    }\n}\n",
  "sourcePath": "/home/eugene/Documents/cryptocurrency/barbell/contracts/derivatives/Option.sol",
  "compiler": {
    "name": "solc",
    "version": "0.5.8+commit.23d335f2.Emscripten.clang"
  },
  "schemaVersion": "3.0.14",
  "updatedAt": "2020-09-07T09:58:10.129Z",
  "devdoc": {
    "methods": {}
  },
  "userdoc": {
    "methods": {}
  }
}