{
  "contractName": "OptionsOTC",
  "abi": [
    {
      "inputs": [
        {
          "internalType": "address",
          "name": "_underlying",
          "type": "address"
        }
      ],
      "stateMutability": "nonpayable",
      "type": "constructor"
    },
    {
      "inputs": [
        {
          "internalType": "address",
          "name": "buyer",
          "type": "address"
        },
        {
          "internalType": "uint256",
          "name": "expiryBlock",
          "type": "uint256"
        },
        {
          "internalType": "enum OptionsOTC.OptType",
          "name": "t",
          "type": "uint8"
        },
        {
          "internalType": "uint256",
          "name": "strike",
          "type": "uint256"
        },
        {
          "internalType": "uint256",
          "name": "price",
          "type": "uint256"
        },
        {
          "internalType": "uint256",
          "name": "quantity",
          "type": "uint256"
        }
      ],
      "name": "issue",
      "outputs": [],
      "stateMutability": "nonpayable",
      "type": "function"
    },
    {
      "inputs": [
        {
          "internalType": "uint256",
          "name": "expiryBlock",
          "type": "uint256"
        },
        {
          "internalType": "enum OptionsOTC.OptType",
          "name": "t",
          "type": "uint8"
        },
        {
          "internalType": "uint256",
          "name": "strike",
          "type": "uint256"
        }
      ],
      "name": "claim",
      "outputs": [],
      "stateMutability": "payable",
      "type": "function"
    }
  ],
  "bytecode": "0x608060405234801561001057600080fd5b50604051610b73380380610b738339818101604052602081101561003357600080fd5b810190808051906020019092919050505033600460006101000a81548173ffffffffffffffffffffffffffffffffffffffff021916908373ffffffffffffffffffffffffffffffffffffffff16021790555080600260006101000a81548173ffffffffffffffffffffffffffffffffffffffff021916908373ffffffffffffffffffffffffffffffffffffffff16021790555080600360006101000a81548173ffffffffffffffffffffffffffffffffffffffff021916908373ffffffffffffffffffffffffffffffffffffffff16021790555050610a5c806101176000396000f3fe6080604052600436106100295760003560e01c8063063b81551461002e578063e366bb1d146100b4575b600080fd5b34801561003a57600080fd5b506100b2600480360360c081101561005157600080fd5b81019080803573ffffffffffffffffffffffffffffffffffffffff16906020019092919080359060200190929190803560ff1690602001909291908035906020019092919080359060200190929190803590602001909291905050506100f9565b005b6100f7600480360360608110156100ca57600080fd5b8101908080359060200190929190803560ff16906020019092919080359060200190929190505050610498565b005b80600a02600554016005819055506000600a43019050601c81870311610187576040517f08c379a000000000000000000000000000000000000000000000000000000000815260040180806020018281038252601e8152602001807f696e73756666696369656e7420636f6e7472616374206475726174696f6e000081525060200191505060405180910390fd5b600360009054906101000a900473ffffffffffffffffffffffffffffffffffffffff1673ffffffffffffffffffffffffffffffffffffffff166370a08231306040518263ffffffff1660e01b8152600401808273ffffffffffffffffffffffffffffffffffffffff1673ffffffffffffffffffffffffffffffffffffffff16815260200191505060206040518083038186803b15801561022657600080fd5b505afa15801561023a573d6000803e3d6000fd5b505050506040513d602081101561025057600080fd5b8101908080519060200190929190505050600554116102ba576040517f08c379a00000000000000000000000000000000000000000000000000000000081526004018080602001828103825260348152602001806109f36034913960400191505060405180910390fd5b6102c261094a565b60405180606001604052808381526020018881526020018681525090506102e761096b565b6040518060a001604052808a73ffffffffffffffffffffffffffffffffffffffff1681526020013373ffffffffffffffffffffffffffffffffffffffff16815260200186815260200185815260200183815250905080600160008a8a8a60405160200180807f544f4b000000000000000000000000000000000000000000000000000000000081525060030184815260200183600181111561038557fe5b60ff1660f81b8152600101828152602001935050505060405160208183030381529060405280519060200120815260200190815260200160002060008201518160000160006101000a81548173ffffffffffffffffffffffffffffffffffffffff021916908373ffffffffffffffffffffffffffffffffffffffff16021790555060208201518160010160006101000a81548173ffffffffffffffffffffffffffffffffffffffff021916908373ffffffffffffffffffffffffffffffffffffffff16021790555060408201518160020155606082015181600301556080820151816004016000820151816000015560208201518160010155604082015181600201555050905050505050505050505050565b60006001600085858560405160200180807f544f4b00000000000000000000000000000000000000000000000000000000008152506003018481526020018360018111156104e257fe5b60ff1660f81b8152600101828152602001935050505060405160208183030381529060405280519060200120815260200190815260200160002090504381600401600001541061059a576040517f08c379a00000000000000000000000000000000000000000000000000000000081526004018080602001828103825260168152602001807f636f6e7472616374206973206e6f74206163746976650000000000000000000081525060200191505060405180910390fd5b8060030154600360009054906101000a900473ffffffffffffffffffffffffffffffffffffffff1673ffffffffffffffffffffffffffffffffffffffff166370a08231306040518263ffffffff1660e01b8152600401808273ffffffffffffffffffffffffffffffffffffffff1673ffffffffffffffffffffffffffffffffffffffff16815260200191505060206040518083038186803b15801561063e57600080fd5b505afa158015610652573d6000803e3d6000fd5b505050506040513d602081101561066857600080fd5b8101908080519060200190929190505050116106cf576040517f08c379a00000000000000000000000000000000000000000000000000000000081526004018080602001828103825260268152602001806109cd6026913960400191505060405180910390fd5b81816003015402341161074a576040517f08c379a000000000000000000000000000000000000000000000000000000000815260040180806020018281038252601d8152602001807f696e73756666696369656e742066756e647320666f7220736574746c6500000081525060200191505060405180910390fd5b600360009054906101000a900473ffffffffffffffffffffffffffffffffffffffff1673ffffffffffffffffffffffffffffffffffffffff166323b872dd303360646040518463ffffffff1660e01b8152600401808473ffffffffffffffffffffffffffffffffffffffff1673ffffffffffffffffffffffffffffffffffffffff1681526020018373ffffffffffffffffffffffffffffffffffffffff1673ffffffffffffffffffffffffffffffffffffffff1681526020018281526020019350505050602060405180830381600087803b15801561082857600080fd5b505af115801561083c573d6000803e3d6000fd5b505050506040513d602081101561085257600080fd5b81019080805190602001909291905050506108d5576040517f08c379a000000000000000000000000000000000000000000000000000000000815260040180806020018281038252600f8152602001807f7472616e73666572206661696c6564000000000000000000000000000000000081525060200191505060405180910390fd5b600460009054906101000a900473ffffffffffffffffffffffffffffffffffffffff1673ffffffffffffffffffffffffffffffffffffffff166108fc838360030154029081150290604051600060405180830381858888f19350505050158015610943573d6000803e3d6000fd5b5050505050565b60405180606001604052806000815260200160008152602001600081525090565b6040518060a00160405280600073ffffffffffffffffffffffffffffffffffffffff168152602001600073ffffffffffffffffffffffffffffffffffffffff16815260200160008152602001600081526020016109c661094a565b8152509056fe696e73756666696369656e742062616c616e6365206f662074686520756e6465726c79696e67696e73756666696369656e7420756e6465726c79696e67207265736572766520746f206973737565206d6f726520746f6b656e73a26469706673582212207a6db48906a7e3052228aa970cffed1ac245aabf451ca4709b486677cc7f56bd64736f6c63430006080033",
  "immutableReferences": {},
  "source": "pragma solidity ^0.6.0;\n\n// pragma experimental ABIEncoderV2;\n\nimport \"../assetts/Token.sol\";\nimport \"../utilities/Oracle.sol\";\nimport \"../interfaces/IERC20Token.sol\";\n\ncontract OptionsOTC {\n    // TODO: Keep a seperate list of all the contracts. The market maker can\n    // periodically go through delete all the worthless contracts and settle\n    // the delegates with the underlying.\n\n    enum OptType {C, P}\n\n    struct Vault {\n        uint256 expiry;\n        uint256 amount;\n    }\n\n    mapping(address => Vault) balances;\n\n    struct Asset {\n        uint256 claimBlock;\n        uint256 expiryBlock;\n        uint256 strike;\n    }\n\n    struct Order {\n        address buyer;\n        address seller;\n        uint256 price;\n        uint256 quantity;\n        Asset asset;\n    }\n\n    mapping(bytes32 => Order) orders;\n\n    // address public underlying;\n\n    Oracle private oracle;\n    IERC20Token private underlying;\n\n    address payable private marketMaker;\n\n    uint256 issued;\n\n    // * Function with owner address that can buy tokens\n    // * Admin needs to have bought tokens ahead of time\n\n    constructor(address _underlying) public {\n        marketMaker = msg.sender;\n\n        oracle = Oracle(_underlying);\n        underlying = IERC20Token(_underlying);\n    }\n\n    function issue(\n        address buyer,\n        uint256 expiryBlock,\n        OptType t,\n        uint256 strike,\n        uint256 price,\n        uint256 quantity\n    ) public {\n        issued = issued + 10 * quantity;\n        uint256 claimBlock = block.number + 10;\n\n        require(\n            expiryBlock - claimBlock > 28,\n            \"insufficient contract duration\"\n        );\n\n        require(\n            issued > underlying.balanceOf(address(this)),\n            \"insufficient underlying reserve to issue more tokens\"\n        );\n\n        // TODO: Additional logic can be used to offset calls and Puts at the\n        // same strike price.\n\n        Asset memory a = Asset(claimBlock, expiryBlock, strike);\n        Order memory o = Order(buyer, msg.sender, price, quantity, a);\n\n        orders[keccak256(abi.encodePacked(\"TOK\", expiryBlock, t, strike))] = o;\n    }\n\n    function claim(\n        uint256 expiryBlock,\n        OptType t,\n        uint256 strike\n    ) public payable {\n        // provided all conditions are satisfied (in the money, etc.) pay the\n        // market maker and transfer ether from the buyer to the market maker\n\n        Order storage o = orders[keccak256(\n            abi.encodePacked(\"TOK\", expiryBlock, t, strike)\n        )];\n\n        require(o.asset.claimBlock < block.number, \"contract is not active\");\n\n        require(\n            underlying.balanceOf(address(this)) > o.quantity,\n            \"insufficient balance of the underlying\"\n        );\n\n        require(\n            msg.value > o.quantity * strike,\n            \"insufficient funds for settle\"\n        );\n\n        require(\n            underlying.transferFrom(address(this), msg.sender, 100),\n            \"transfer failed\"\n        );\n\n        marketMaker.transfer(o.quantity * strike);\n    }\n\n    // function buyToOpen(\n    //     uint256 expiryBlock,\n    //     OptType t,\n    //     uint256 strike,\n    //     uint256 quantity\n    // ) public {\n    //     Order storage o = orders[keccak256(\n    //         abi.encodePacked(\"TOK\", expiryBlock, t, strike)\n    //     )];\n\n    //     require(o.asset.claimBlock < block.number, \"contract is not active\");\n\n    //     require(\n    //         underlying.balanceOf(address(this)) > o.quantity,\n    //         \"insufficient balance of the underlying\"\n    //     );\n\n    //     require(\n    //         msg.value > o.quantity * o.price,\n    //         \"insufficient funds for settle\"\n    //     );\n\n    //     marketMaker.transfer(o.quantity * o.price);\n    // }\n\n    // function sellToClose(uint _amount, uint _expiry) public {\n\n    //     //\n\n    //     // balances[msg.sender]\n    // }\n\n    // function settlePut(uint expiryBlock, uint strikePrice) public returns (bool) {\n\n    //     Transfer t = pending[sha3(abi.encodePacked(\"TOK\", expiryBlock, OptType.P, strikePrice))];\n\n    //     require(t.expiryBlock == expiryBlock, \"wrong contract\");\n\n    //     uint sp = oracle.priceAtBlock(expiryBlock);\n\n    //     require(t.strikePrice < sp, \"contract is worthless\");\n\n    //     msg.sender.transfer(t.numContracts * strikePrice) // TODO: Check if this succeeds\n    // }\n\n    // function settleCall(uint expiryBlock, uint strikePrice) {\n\n    //     // TODO: Call Oracle to get token price at a specified block\n\n    //     Transfer t = pending[sha3(abi.encodePacked(\"TOK\", expiryBlock, OptType.C, strikePrice))];\n\n    //     require(condition);\n\n    //     // TODO: Check the option expired\n\n    //     // TODO: Check the strike price was correct at the time of expiration\n\n    //     // TODO: Transfer tokens from the contract to the buyer\n    // }\n\n    // function approve(address delegate, uint numOpts, uint strike, uint expiryBlock) public returns (bool) {\n\n    //     uint minBlock = block.number + 10;\n\n    //     require(expiryBlock - minBlock > 28, \"insuffecient contract duration\");\n    //     require(numTokens <= balances[msg.sender], \"sender has insufficient funds\");\n\n    //     // TODO: Check this contract owns enough of the underlying\n\n    //     pending[delegate] = Transfer(msg.sender, minBlock, expiryBlock, strike, numOpts)\n    // }\n\n    // function settle() public {\n\n    //     // * msg.value = strike * _amount\n\n    //     // transfer the number of tokens in the sender's vault to the user's address\n    // }\n\n    // function addUnderlying() public {\n\n    //     // user ERC20 interfase and transfer\n    // }\n}\n",
  "sourcePath": "/home/eugene/Documents/cryptocurrency/barbell/contracts/derivatives/Option.sol",
  "compiler": {
    "name": "solc",
    "version": "0.6.8+commit.0bbfe453.Emscripten.clang"
  },
  "schemaVersion": "3.2.5",
  "updatedAt": "2020-10-04T14:04:58.141Z",
  "devdoc": {
    "methods": {}
  },
  "userdoc": {
    "methods": {}
  }
}