{
  "contractName": "Option",
  "abi": [
    {
      "inputs": [
        {
          "internalType": "address",
          "name": "uAddress",
          "type": "address"
        },
        {
          "internalType": "address",
          "name": "oAddress",
          "type": "address"
        }
      ],
      "stateMutability": "nonpayable",
      "type": "constructor"
    },
    {
      "inputs": [
        {
          "internalType": "address",
          "name": "buyer",
          "type": "address"
        },
        {
          "internalType": "uint256",
          "name": "expiryBlock",
          "type": "uint256"
        },
        {
          "internalType": "enum Option.OptType",
          "name": "t",
          "type": "uint8"
        },
        {
          "internalType": "uint256",
          "name": "strike",
          "type": "uint256"
        },
        {
          "internalType": "uint256",
          "name": "price",
          "type": "uint256"
        },
        {
          "internalType": "uint256",
          "name": "quantity",
          "type": "uint256"
        }
      ],
      "name": "issue",
      "outputs": [],
      "stateMutability": "nonpayable",
      "type": "function"
    },
    {
      "inputs": [
        {
          "internalType": "uint256",
          "name": "expiryBlock",
          "type": "uint256"
        },
        {
          "internalType": "enum Option.OptType",
          "name": "t",
          "type": "uint8"
        },
        {
          "internalType": "uint256",
          "name": "strike",
          "type": "uint256"
        }
      ],
      "name": "claim",
      "outputs": [],
      "stateMutability": "payable",
      "type": "function"
    },
    {
      "inputs": [],
      "name": "withdraw",
      "outputs": [],
      "stateMutability": "nonpayable",
      "type": "function"
    }
  ],
  "bytecode": "0x608060405234801561001057600080fd5b50604051610beb380380610beb8339818101604052604081101561003357600080fd5b81019080805190602001909291908051906020019092919050505033600560006101000a81548173ffffffffffffffffffffffffffffffffffffffff021916908373ffffffffffffffffffffffffffffffffffffffff16021790555080600260006101000a81548173ffffffffffffffffffffffffffffffffffffffff021916908373ffffffffffffffffffffffffffffffffffffffff16021790555081600360006101000a81548173ffffffffffffffffffffffffffffffffffffffff021916908373ffffffffffffffffffffffffffffffffffffffff1602179055505050610ac9806101226000396000f3fe6080604052600436106100345760003560e01c8063063b8155146100395780633ccfd60b146100bf578063e366bb1d146100d6575b600080fd5b34801561004557600080fd5b506100bd600480360360c081101561005c57600080fd5b81019080803573ffffffffffffffffffffffffffffffffffffffff16906020019092919080359060200190929190803560ff16906020019092919080359060200190929190803590602001909291908035906020019092919050505061011b565b005b3480156100cb57600080fd5b506100d46104d5565b005b610119600480360360608110156100ec57600080fd5b8101908080359060200190929190803560ff16906020019092919080359060200190929190505050610557565b005b80600a026004540160048190555043851161019e576040517f08c379a000000000000000000000000000000000000000000000000000000000815260040180806020018281038252601e8152602001807f696e73756666696369656e7420636f6e7472616374206475726174696f6e000081525060200191505060405180910390fd5b600454600360009054906101000a900473ffffffffffffffffffffffffffffffffffffffff1673ffffffffffffffffffffffffffffffffffffffff1663dd62ed3e600560009054906101000a900473ffffffffffffffffffffffffffffffffffffffff16306040518363ffffffff1660e01b8152600401808373ffffffffffffffffffffffffffffffffffffffff1681526020018273ffffffffffffffffffffffffffffffffffffffff1681526020019250505060206040518083038186803b15801561026a57600080fd5b505afa15801561027e573d6000803e3d6000fd5b505050506040513d602081101561029457600080fd5b8101908080519060200190929190505050116102fb576040517f08c379a0000000000000000000000000000000000000000000000000000000008152600401808060200182810382526034815260200180610a606034913960400191505060405180910390fd5b6103036109b5565b60405180606001604052804381526020018781526020018581525090506103286109d6565b6040518060a001604052808973ffffffffffffffffffffffffffffffffffffffff1681526020013373ffffffffffffffffffffffffffffffffffffffff168152602001858152602001848152602001838152509050806001600089898960405160200180807f544f4b00000000000000000000000000000000000000000000000000000000008152506003018481526020018360018111156103c657fe5b60f81b8152600101828152602001935050505060405160208183030381529060405280519060200120815260200190815260200160002060008201518160000160006101000a81548173ffffffffffffffffffffffffffffffffffffffff021916908373ffffffffffffffffffffffffffffffffffffffff16021790555060208201518160010160006101000a81548173ffffffffffffffffffffffffffffffffffffffff021916908373ffffffffffffffffffffffffffffffffffffffff160217905550604082015181600201556060820151816003015560808201518160040160008201518160000155602082015181600101556040820151816002015550509050505050505050505050565b600560009054906101000a900473ffffffffffffffffffffffffffffffffffffffff1673ffffffffffffffffffffffffffffffffffffffff166108fc3073ffffffffffffffffffffffffffffffffffffffff16319081150290604051600060405180830381858888f19350505050158015610554573d6000803e3d6000fd5b50565b60006001600085858560405160200180807f544f4b00000000000000000000000000000000000000000000000000000000008152506003018481526020018360018111156105a157fe5b60f81b81526001018281526020019350505050604051602081830303815290604052805190602001208152602001908152602001600020905043816004016000015410610656576040517f08c379a00000000000000000000000000000000000000000000000000000000081526004018080602001828103825260168152602001807f636f6e7472616374206973206e6f74206163746976650000000000000000000081525060200191505060405180910390fd5b81600260009054906101000a900473ffffffffffffffffffffffffffffffffffffffff1673ffffffffffffffffffffffffffffffffffffffff166326ae8f52436040518263ffffffff1660e01b81526004018082815260200191505060206040518083038186803b1580156106ca57600080fd5b505afa1580156106de573d6000803e3d6000fd5b505050506040513d60208110156106f457600080fd5b81019080805190602001909291905050501161075b576040517f08c379a0000000000000000000000000000000000000000000000000000000008152600401808060200182810382526028815260200180610a386028913960400191505060405180910390fd5b8181600301540234116107d6576040517f08c379a000000000000000000000000000000000000000000000000000000000815260040180806020018281038252601c8152602001807f696e73756666696369656e742066756e647320746f20736574746c650000000081525060200191505060405180910390fd5b6000600360009054906101000a900473ffffffffffffffffffffffffffffffffffffffff1673ffffffffffffffffffffffffffffffffffffffff166323b872dd600560009054906101000a900473ffffffffffffffffffffffffffffffffffffffff163385600301546040518463ffffffff1660e01b8152600401808473ffffffffffffffffffffffffffffffffffffffff1681526020018373ffffffffffffffffffffffffffffffffffffffff1681526020018281526020019350505050602060405180830381600087803b1580156108af57600080fd5b505af11580156108c3573d6000803e3d6000fd5b505050506040513d60208110156108d957600080fd5b810190808051906020019092919050505090508061095f576040517f08c379a000000000000000000000000000000000000000000000000000000000815260040180806020018281038252600f8152602001807f7472616e73666572206661696c6564000000000000000000000000000000000081525060200191505060405180910390fd5b3373ffffffffffffffffffffffffffffffffffffffff166108fc8484600301540234039081150290604051600060405180830381858888f193505050501580156109ad573d6000803e3d6000fd5b505050505050565b60405180606001604052806000815260200160008152602001600081525090565b6040518060a00160405280600073ffffffffffffffffffffffffffffffffffffffff168152602001600073ffffffffffffffffffffffffffffffffffffffff1681526020016000815260200160008152602001610a316109b5565b8152509056fe74686520746f6b656e207072696365206e6565647320746f20626520696e20746865206d6f6e6579696e73756666696369656e7420756e6465726c79696e67207265736572766520746f206973737565206d6f726520746f6b656e73a2646970667358221220ede528b70c8c198bf01f751e5de00d69ba63c888754dabeb08fb90ce7f51dfb164736f6c63430007010033",
  "immutableReferences": {},
  "source": "// SPDX-License-Identifier: GPL-3.0\n\npragma solidity ^0.7.0;\n\nimport \"../assetts/Token.sol\";\n\nimport \"../interfaces/IOracle.sol\";\nimport \"../interfaces/IERC20Token.sol\";\n\ncontract Option {\n\n    enum OptType {C, P}\n\n    struct Vault {\n        uint256 expiry;\n        uint256 amount;\n    }\n\n    mapping(address => Vault) balances;\n\n    struct Asset {\n        uint256 claimBlock;\n        uint256 expiryBlock;\n        \n        uint256 strike;\n    }\n\n    struct Order {\n        address buyer;\n        address seller;\n        \n        uint256 price;\n        uint256 quantity;\n        \n        Asset asset;\n    }\n\n    mapping(bytes32 => Order) orders;\n\n    IOracle private oracle;\n    IERC20Token private underlying;\n\n    uint256 private issued;\n    address payable private marketMaker;\n\n    constructor(address uAddress, address oAddress) {\n        marketMaker = msg.sender;\n\n        oracle = IOracle(oAddress);\n        underlying = IERC20Token(uAddress);\n    }\n\n    function issue(\n        address buyer,\n        uint256 expiryBlock,\n        OptType t,\n        uint256 strike,\n        uint256 price,\n        uint256 quantity\n    ) public {\n        issued = issued + 10 * quantity;\n\n        require(\n            expiryBlock > block.number,\n            \"insufficient contract duration\"\n        );\n\n        require(\n            underlying.allowance(marketMaker, address(this)) > issued,\n            \"insufficient underlying reserve to issue more tokens\"\n        );\n\n        // TODO: Additional logic can be used to offset calls and Puts at the\n        // same strike price.\n\n        Asset memory a = Asset(block.number, expiryBlock, strike);\n        Order memory o = Order(buyer, msg.sender, price, quantity, a);\n\n        orders[keccak256(abi.encodePacked(\"TOK\", expiryBlock, t, strike))] = o;\n    }\n\n    // https://ethereum.stackexchange.com/questions/45277/calling-one-contract-to-another-contract-method\n    // https://ethereum.stackexchange.com/questions/64567/unused-variables-warning-in-address-call-return-tuple-bool-bytes-memory\n\n    function claim(\n        uint256 expiryBlock,\n        OptType t,\n        uint256 strike\n    ) public payable { // https://programtheblockchain.com/posts/2017/12/15/writing-a-contract-that-handles-ether\n        Order storage o = orders[keccak256(\n            abi.encodePacked(\"TOK\", expiryBlock, t, strike)\n        )];\n\n        require(o.asset.claimBlock < block.number, \"contract is not active\");\n\n        require(oracle.priceAtBlock(block.number) > strike, \"the token price needs to be in the money\");\n\n        require(\n            msg.value > o.quantity * strike, // TODO: Send the difference back to the buyer\n            \"insufficient funds to settle\"\n        );\n\n        bool success = underlying.transferFrom(marketMaker, msg.sender, o.quantity);\n\n        require(success, \"transfer failed\");\n\n        // https://solidity.readthedocs.io/en/v0.7.2/050-breaking-changes.html#semantic-and-syntactic-changes\n        // https://ethereum.stackexchange.com/questions/64567/unused-variables-warning-in-address-call-return-tuple-bool-bytes-memory\n\n        msg.sender.transfer(msg.value - o.quantity * strike);\n    }\n\n    function withdraw() public {\n        marketMaker.transfer(address(this).balance);\n    }\n}\n",
  "sourcePath": "/home/eugene/Documents/cryptocurrency/in-the-money/contracts/derivatives/Option.sol",
  "compiler": {
    "name": "solc",
    "version": "0.7.1+commit.f4a555be.Emscripten.clang"
  },
  "schemaVersion": "3.2.5",
  "updatedAt": "2020-10-12T15:24:33.488Z",
  "devdoc": {
    "kind": "dev",
    "methods": {},
    "version": 1
  },
  "userdoc": {
    "kind": "user",
    "methods": {},
    "version": 1
  }
}