{
  "contractName": "Oracle",
  "abi": [
    {
      "inputs": [
        {
          "internalType": "address",
          "name": "uAddress",
          "type": "address"
        }
      ],
      "stateMutability": "nonpayable",
      "type": "constructor"
    },
    {
      "inputs": [
        {
          "internalType": "uint256",
          "name": "blockNumber",
          "type": "uint256"
        }
      ],
      "name": "priceAtBlock",
      "outputs": [
        {
          "internalType": "uint256",
          "name": "",
          "type": "uint256"
        }
      ],
      "stateMutability": "view",
      "type": "function"
    }
  ],
  "bytecode": "0x608060405234801561001057600080fd5b506040516101523803806101528339818101604052602081101561003357600080fd5b8101908080519060200190929190505050806000806101000a81548173ffffffffffffffffffffffffffffffffffffffff021916908373ffffffffffffffffffffffffffffffffffffffff1602179055505060bf806100936000396000f3fe6080604052348015600f57600080fd5b506004361060285760003560e01c806326ae8f5214602d575b600080fd5b605660048036036020811015604157600080fd5b8101908080359060200190929190505050606c565b6040518082815260200191505060405180910390f35b600060166001600a844060001c81607f57fe5b060101905091905056fea2646970667358221220db3804162151d530c747cfef336372daef08cd41410f183f4a7d7719ef04845e64736f6c63430007010033",
  "immutableReferences": {},
  "source": "// SPDX-License-Identifier: GPL-3.0\n\npragma solidity ^0.7.0;\n\ncontract Oracle {\n    address private underlying;\n\n    constructor(address uAddress) {\n        underlying = uAddress;\n    }\n\n    function priceAtBlock(uint256 blockNumber) public view returns (uint256) {\n        return (uint256(blockhash(blockNumber)) % 10) + 1 + 22;\n    }\n}\n",
  "sourcePath": "/home/eugene/Documents/cryptocurrency/in-the-money/contracts/utilities/Oracle.sol",
  "compiler": {
    "name": "solc",
    "version": "0.7.1+commit.f4a555be.Emscripten.clang"
  },
  "schemaVersion": "3.2.5",
  "updatedAt": "2020-10-12T15:24:33.494Z",
  "devdoc": {
    "kind": "dev",
    "methods": {},
    "version": 1
  },
  "userdoc": {
    "kind": "user",
    "methods": {},
    "version": 1
  }
}