{
  "contractName": "Oracle",
  "abi": [
    {
      "inputs": [
        {
          "internalType": "address",
          "name": "_underlying",
          "type": "address"
        }
      ],
      "stateMutability": "nonpayable",
      "type": "constructor"
    },
    {
      "inputs": [
        {
          "internalType": "uint256",
          "name": "blockNumber",
          "type": "uint256"
        }
      ],
      "name": "priceAtBlock",
      "outputs": [
        {
          "internalType": "uint256",
          "name": "",
          "type": "uint256"
        }
      ],
      "stateMutability": "view",
      "type": "function"
    }
  ],
  "bytecode": "0x608060405234801561001057600080fd5b506040516101c43803806101c48339818101604052602081101561003357600080fd5b8101908080519060200190929190505050806000806101000a81548173ffffffffffffffffffffffffffffffffffffffff021916908373ffffffffffffffffffffffffffffffffffffffff16021790555050610130806100946000396000f3fe6080604052348015600f57600080fd5b506004361060285760003560e01c806326ae8f5214602d575b600080fd5b605660048036036020811015604157600080fd5b8101908080359060200190929190505050606c565b6040518082815260200191505060405180910390f35b600043821060e2576040517f08c379a000000000000000000000000000000000000000000000000000000000815260040180806020018281038252601d8152602001807f756e6b6e6f776e207072696365206f662066757475726520626c6f636b00000081525060200191505060405180910390fd5b6001600a834060001c8160f157fe5b0601905091905056fea26469706673582212206c98a571c2836968d4d954fd52a805826344ea917497ba14b04c0b29dc383f9d64736f6c63430007020033",
  "immutableReferences": {},
  "source": "// SPDX-License-Identifier: MIT\n\npragma solidity ^0.7.0;\n\ncontract Oracle {\n    address private underlying;\n\n    constructor(address _underlying) {\n        underlying = _underlying;\n        // underlying = Token(_underlying)\n    }\n\n    function priceAtBlock(uint256 blockNumber) public view returns (uint256) {\n        require(blockNumber < block.number, \"unknown price of future block\");\n\n        return (uint256(blockhash(blockNumber)) % 10) + 1;\n    }\n}\n",
  "sourcePath": "/home/eugene/Documents/cryptocurrency/barbell/contracts/utilities/Oracle.sol",
  "compiler": {
    "name": "solc",
    "version": "0.7.2+commit.51b20bc0.Emscripten.clang"
  },
  "schemaVersion": "3.2.5",
  "updatedAt": "2020-10-05T09:30:27.221Z",
  "devdoc": {
    "kind": "dev",
    "methods": {},
    "version": 1
  },
  "userdoc": {
    "kind": "user",
    "methods": {},
    "version": 1
  }
}